{
  "abi": [
    {
      "inputs": [
        {
          "internalType": "address[]",
          "name": "tokenAddresses",
          "type": "address[]"
        },
        {
          "internalType": "address[]",
          "name": "priceFeedAddresses",
          "type": "address[]"
        },
        {
          "internalType": "address",
          "name": "dscAddress",
          "type": "address"
        }
      ],
      "stateMutability": "nonpayable",
      "type": "constructor"
    },
    {
      "inputs": [
        {
          "internalType": "uint256",
          "name": "healthFactorValue",
          "type": "uint256"
        }
      ],
      "name": "DSCEngine__BreaksHealthFactor",
      "type": "error"
    },
    {
      "inputs": [],
      "name": "DSCEngine__HealthFactorNotImproved",
      "type": "error"
    },
    {
      "inputs": [],
      "name": "DSCEngine__HealthFactorOk",
      "type": "error"
    },
    {
      "inputs": [],
      "name": "DSCEngine__MintFailed",
      "type": "error"
    },
    {
      "inputs": [],
      "name": "DSCEngine__NeedsMoreThanZero",
      "type": "error"
    },
    {
      "inputs": [],
      "name": "DSCEngine__TokenAddressesAndPriceFeedAddressesAmountsDontMatch",
      "type": "error"
    },
    {
      "inputs": [],
      "name": "DSCEngine__TokenNotAllowed",
      "type": "error"
    },
    {
      "inputs": [],
      "name": "DSCEngine__TransferFailed",
      "type": "error"
    },
    {
      "anonymous": false,
      "inputs": [
        {
          "indexed": true,
          "internalType": "address",
          "name": "user",
          "type": "address"
        },
        {
          "indexed": true,
          "internalType": "address",
          "name": "token",
          "type": "address"
        },
        {
          "indexed": true,
          "internalType": "uint256",
          "name": "amount",
          "type": "uint256"
        }
      ],
      "name": "CollateralDeposited",
      "type": "event"
    },
    {
      "anonymous": false,
      "inputs": [
        {
          "indexed": true,
          "internalType": "address",
          "name": "redeemedFrom",
          "type": "address"
        },
        {
          "indexed": true,
          "internalType": "address",
          "name": "redeemedTo",
          "type": "address"
        },
        {
          "indexed": true,
          "internalType": "address",
          "name": "token",
          "type": "address"
        },
        {
          "indexed": false,
          "internalType": "uint256",
          "name": "amount",
          "type": "uint256"
        }
      ],
      "name": "CollateralRedeemed",
      "type": "event"
    },
    {
      "inputs": [
        {
          "internalType": "uint256",
          "name": "amount",
          "type": "uint256"
        }
      ],
      "name": "burnDsc",
      "outputs": [],
      "stateMutability": "nonpayable",
      "type": "function"
    },
    {
      "inputs": [
        {
          "internalType": "address",
          "name": "tokenCollateralAddress",
          "type": "address"
        },
        {
          "internalType": "uint256",
          "name": "amountCollateral",
          "type": "uint256"
        }
      ],
      "name": "depositCollateral",
      "outputs": [],
      "stateMutability": "nonpayable",
      "type": "function"
    },
    {
      "inputs": [
        {
          "internalType": "address",
          "name": "tokenCollateralAddress",
          "type": "address"
        },
        {
          "internalType": "uint256",
          "name": "amountCollateral",
          "type": "uint256"
        },
        {
          "internalType": "uint256",
          "name": "amountDscToMint",
          "type": "uint256"
        }
      ],
      "name": "depositCollateralAndMintDsc",
      "outputs": [],
      "stateMutability": "nonpayable",
      "type": "function"
    },
    {
      "inputs": [
        {
          "internalType": "address",
          "name": "user",
          "type": "address"
        }
      ],
      "name": "getAccountCollateralValue",
      "outputs": [
        {
          "internalType": "uint256",
          "name": "totalCollateralValueInUsd",
          "type": "uint256"
        }
      ],
      "stateMutability": "view",
      "type": "function"
    },
    {
      "inputs": [
        {
          "internalType": "address",
          "name": "user",
          "type": "address"
        }
      ],
      "name": "getAccountInformation",
      "outputs": [
        {
          "internalType": "uint256",
          "name": "totalDscMinted",
          "type": "uint256"
        },
        {
          "internalType": "uint256",
          "name": "collateralValueInUSD",
          "type": "uint256"
        }
      ],
      "stateMutability": "view",
      "type": "function"
    },
    {
      "inputs": [],
      "name": "getHealthFactor",
      "outputs": [],
      "stateMutability": "view",
      "type": "function"
    },
    {
      "inputs": [
        {
          "internalType": "address",
          "name": "token",
          "type": "address"
        },
        {
          "internalType": "uint256",
          "name": "usdAmountInWei",
          "type": "uint256"
        }
      ],
      "name": "getTokenAmountFromUsd",
      "outputs": [
        {
          "internalType": "uint256",
          "name": "",
          "type": "uint256"
        }
      ],
      "stateMutability": "view",
      "type": "function"
    },
    {
      "inputs": [
        {
          "internalType": "address",
          "name": "token",
          "type": "address"
        },
        {
          "internalType": "uint256",
          "name": "amount",
          "type": "uint256"
        }
      ],
      "name": "getUsdValue",
      "outputs": [
        {
          "internalType": "uint256",
          "name": "",
          "type": "uint256"
        }
      ],
      "stateMutability": "view",
      "type": "function"
    },
    {
      "inputs": [
        {
          "internalType": "address",
          "name": "collateral",
          "type": "address"
        },
        {
          "internalType": "address",
          "name": "user",
          "type": "address"
        },
        {
          "internalType": "uint256",
          "name": "debtToCover",
          "type": "uint256"
        }
      ],
      "name": "liquidate",
      "outputs": [],
      "stateMutability": "nonpayable",
      "type": "function"
    },
    {
      "inputs": [
        {
          "internalType": "uint256",
          "name": "amountDscToMint",
          "type": "uint256"
        }
      ],
      "name": "mintDsc",
      "outputs": [],
      "stateMutability": "nonpayable",
      "type": "function"
    },
    {
      "inputs": [
        {
          "internalType": "address",
          "name": "tokenCollateralAddress",
          "type": "address"
        },
        {
          "internalType": "uint256",
          "name": "amountCollateral",
          "type": "uint256"
        }
      ],
      "name": "redeemCollateral",
      "outputs": [],
      "stateMutability": "nonpayable",
      "type": "function"
    },
    {
      "inputs": [
        {
          "internalType": "address",
          "name": "tokenCollateralAddress",
          "type": "address"
        },
        {
          "internalType": "uint256",
          "name": "amountCollateral",
          "type": "uint256"
        },
        {
          "internalType": "uint256",
          "name": "amountDscToBurn",
          "type": "uint256"
        }
      ],
      "name": "redeemCollateralForDsc",
      "outputs": [],
      "stateMutability": "nonpayable",
      "type": "function"
    },
    {
      "inputs": [
        {
          "internalType": "address",
          "name": "",
          "type": "address"
        }
      ],
      "name": "s_priceFeeds",
      "outputs": [
        {
          "internalType": "address",
          "name": "",
          "type": "address"
        }
      ],
      "stateMutability": "view",
      "type": "function"
    }
  ],
  "bytecode": {
    "object": "0x60a06040523480156200001157600080fd5b506040516200115b3803806200115b833981016040819052620000349162000248565b600160005581518351146200005c57604051631d8bb3e760e11b815260040160405180910390fd5b60005b835181101562000152578281815181106200007e576200007e620002c4565b6020026020010151600160008684815181106200009f576200009f620002c4565b60200260200101516001600160a01b03166001600160a01b0316815260200190815260200160002060006101000a8154816001600160a01b0302191690836001600160a01b031602179055506004848281518110620001025762000102620002c4565b60209081029190910181015182546001810184556000938452919092200180546001600160a01b0319166001600160a01b03909216919091179055806200014981620002da565b9150506200005f565b506001600160a01b031660805250620003029050565b634e487b7160e01b600052604160045260246000fd5b80516001600160a01b03811681146200019657600080fd5b919050565b600082601f830112620001ad57600080fd5b815160206001600160401b0380831115620001cc57620001cc62000168565b8260051b604051601f19603f83011681018181108482111715620001f457620001f462000168565b6040529384528581018301938381019250878511156200021357600080fd5b83870191505b848210156200023d576200022d826200017e565b8352918301919083019062000219565b979650505050505050565b6000806000606084860312156200025e57600080fd5b83516001600160401b03808211156200027657600080fd5b62000284878388016200019b565b945060208601519150808211156200029b57600080fd5b50620002aa868287016200019b565b925050620002bb604085016200017e565b90509250925092565b634e487b7160e01b600052603260045260246000fd5b600060018201620002fb57634e487b7160e01b600052601160045260246000fd5b5060010190565b608051610e2f6200032c6000396000818161074d01528181610a670152610b0c0152610e2f6000f3fe608060405234801561001057600080fd5b50600436106100cf5760003560e01c8063a5f352b71161008c578063c9b7c32711610066578063c9b7c327146101c4578063e90db8a3146101d7578063f419ea9c146101ea578063f6876608146101fd57600080fd5b8063a5f352b7146100e7578063afea2e481461019e578063c660d112146101b157600080fd5b806326c01303146100d457806359451b6d146100e95780637be564fc1461012f5780637d1a4450146101575780639acd81b314610178578063a5d5db0c1461018b575b600080fd5b6100e76100e2366004610bf5565b610210565b005b6101126100f7366004610c31565b6001602052600090815260409020546001600160a01b031681565b6040516001600160a01b0390911681526020015b60405180910390f35b61014261013d366004610c31565b610308565b60408051928352602083019190915201610126565b61016a610165366004610c31565b61031e565b604051908152602001610126565b6100e7610186366004610c53565b6103a6565b6100e7610199366004610c53565b6103f4565b61016a6101ac366004610c53565b61056d565b61016a6101bf366004610c53565b61062b565b6100e76101d2366004610c7d565b6106d6565b6100e76101e5366004610c96565b6107f1565b6100e76101f8366004610c96565b610804565b6100e761020b366004610c7d565b610817565b80806000036102325760405163cb1d3f7d60e01b815260040160405180910390fd5b61023a610844565b6000610245846108a2565b9050670de0b6b3a7640000811061026f5760405163032c072f60e41b815260040160405180910390fd5b600061027b868561056d565b90506000606461028c600a84610cdf565b6102969190610cf6565b905060006102a48284610d18565b90506102b287338a846108d8565b6102bd868833610a0b565b60006102c8886108a2565b90508481116102ea576040516303e141b160e51b815260040160405180910390fd5b6102f333610b76565b50505050506103026001600055565b50505050565b60008061031483610baf565b9094909350915050565b6000805b6004548110156103a05760006004828154811061034157610341610d2b565b60009182526020808320909101546001600160a01b0387811684526002835260408085209190921680855292529091205490915061037f828261062b565b6103899085610d18565b93505050808061039890610d41565b915050610322565b50919050565b80806000036103c85760405163cb1d3f7d60e01b815260040160405180910390fd5b6103d0610844565b6103dc333385856108d8565b6103e533610b76565b6103ef6001600055565b505050565b80806000036104165760405163cb1d3f7d60e01b815260040160405180910390fd5b6001600160a01b03808416600090815260016020526040902054849116610450576040516303a1667160e01b815260040160405180910390fd5b610458610844565b3360009081526002602090815260408083206001600160a01b03881684529091528120805485929061048b908490610d18565b909155505060405183906001600160a01b0386169033907ff1c0dd7e9b98bbff859029005ef89b127af049cd18df1a8d79f0b7e019911e5690600090a46040516323b872dd60e01b8152336004820152306024820152604481018490526000906001600160a01b038616906323b872dd906064016020604051808303816000875af115801561051e573d6000803e3d6000fd5b505050506040513d601f19601f820116820180604052508101906105429190610d5a565b90508061056257604051634dc34d1760e01b815260040160405180910390fd5b506103026001600055565b6001600160a01b03808316600090815260016020526040808220548151633fabe5a360e21b81529151929316918391839163feaf968c9160048082019260a0929091908290030181865afa1580156105c9573d6000803e3d6000fd5b505050506040513d601f19601f820116820180604052508101906105ed9190610d96565b5050509150506402540be400816106049190610cdf565b610616670de0b6b3a764000086610cdf565b6106209190610cf6565b925050505b92915050565b6001600160a01b03808316600090815260016020526040808220548151633fabe5a360e21b81529151929316918391839163feaf968c9160048082019260a0929091908290030181865afa158015610687573d6000803e3d6000fd5b505050506040513d601f19601f820116820180604052508101906106ab9190610d96565b505050915050670de0b6b3a7640000846402540be400836106cc9190610cdf565b6106169190610cdf565b80806000036106f85760405163cb1d3f7d60e01b815260040160405180910390fd5b610700610844565b336000908152600360205260408120805484929061071f908490610d18565b9091555061072e905033610b76565b6040516340c10f1960e01b8152336004820152602481018390526000907f00000000000000000000000000000000000000000000000000000000000000006001600160a01b0316906340c10f19906044016020604051808303816000875af115801561079e573d6000803e3d6000fd5b505050506040513d601f19601f820116820180604052508101906107c29190610d5a565b9050806107e2576040516330eb0fc960e01b815260040160405180910390fd5b506107ed6001600055565b5050565b6107fb83836103f4565b6103ef816106d6565b61080d81610817565b6103ef83836103a6565b80806000036108395760405163cb1d3f7d60e01b815260040160405180910390fd5b6107ed823333610a0b565b60026000540361089b5760405162461bcd60e51b815260206004820152601f60248201527f5265656e7472616e637947756172643a207265656e7472616e742063616c6c0060448201526064015b60405180910390fd5b6002600055565b60008060006108b084610baf565b9092509050600060646108c4603284610cdf565b6108ce9190610cf6565b9050505050919050565b6001600160a01b0380851660009081526002602090815260408083209386168352929052908120805483929061090f908490610de6565b92505081905550816001600160a01b0316836001600160a01b0316856001600160a01b03167fb292db12b8dfa23b760ee5e3bd1d3be184cd8f0eeeacd27ce120d4de4e4721f68460405161096591815260200190565b60405180910390a460405163a9059cbb60e01b81526001600160a01b038481166004830152602482018390526000919084169063a9059cbb906044016020604051808303816000875af11580156109c0573d6000803e3d6000fd5b505050506040513d601f19601f820116820180604052508101906109e49190610d5a565b905080610a0457604051634dc34d1760e01b815260040160405180910390fd5b5050505050565b6001600160a01b03821660009081526003602052604081208054859290610a33908490610de6565b90915550506040516323b872dd60e01b81526001600160a01b038281166004830152306024830152604482018590526000917f0000000000000000000000000000000000000000000000000000000000000000909116906323b872dd906064016020604051808303816000875af1158015610ab2573d6000803e3d6000fd5b505050506040513d601f19601f82011682018060405250810190610ad69190610d5a565b905080610af657604051634dc34d1760e01b815260040160405180910390fd5b604051630852cd8d60e31b8152600481018590527f00000000000000000000000000000000000000000000000000000000000000006001600160a01b0316906342966c6890602401600060405180830381600087803b158015610b5857600080fd5b505af1158015610b6c573d6000803e3d6000fd5b5050505050505050565b6000610b81826108a2565b9050670de0b6b3a76400008110156107ed5760405163e580cc6160e01b815260048101829052602401610892565b6001600160a01b03811660009081526003602052604081205490610bd28361031e565b9050915091565b80356001600160a01b0381168114610bf057600080fd5b919050565b600080600060608486031215610c0a57600080fd5b610c1384610bd9565b9250610c2160208501610bd9565b9150604084013590509250925092565b600060208284031215610c4357600080fd5b610c4c82610bd9565b9392505050565b60008060408385031215610c6657600080fd5b610c6f83610bd9565b946020939093013593505050565b600060208284031215610c8f57600080fd5b5035919050565b600080600060608486031215610cab57600080fd5b610cb484610bd9565b95602085013595506040909401359392505050565b634e487b7160e01b600052601160045260246000fd5b808202811582820484141761062557610625610cc9565b600082610d1357634e487b7160e01b600052601260045260246000fd5b500490565b8082018082111561062557610625610cc9565b634e487b7160e01b600052603260045260246000fd5b600060018201610d5357610d53610cc9565b5060010190565b600060208284031215610d6c57600080fd5b81518015158114610c4c57600080fd5b805169ffffffffffffffffffff81168114610bf057600080fd5b600080600080600060a08688031215610dae57600080fd5b610db786610d7c565b9450602086015193506040860151925060608601519150610dda60808701610d7c565b90509295509295909350565b8181038181111561062557610625610cc956fea2646970667358221220fd21fe624ae839d3bf373758a3d303c4ed9607cdf368316a7e9f8786fa94599e64736f6c63430008140033",
    "linkReferences": {}
  },
  "methodIdentifiers": {
    "burnDsc(uint256)": "f6876608",
    "depositCollateral(address,uint256)": "a5d5db0c",
    "depositCollateralAndMintDsc(address,uint256,uint256)": "e90db8a3",
    "getAccountCollateralValue(address)": "7d1a4450",
    "getAccountInformation(address)": "7be564fc",
    "getHealthFactor()": "a5f352b7",
    "getTokenAmountFromUsd(address,uint256)": "afea2e48",
    "getUsdValue(address,uint256)": "c660d112",
    "liquidate(address,address,uint256)": "26c01303",
    "mintDsc(uint256)": "c9b7c327",
    "redeemCollateral(address,uint256)": "9acd81b3",
    "redeemCollateralForDsc(address,uint256,uint256)": "f419ea9c",
    "s_priceFeeds(address)": "59451b6d"
  },
  "id": 0
}