{
  "abi": [
    {
      "inputs": [
        {
          "internalType": "address[]",
          "name": "tokenAddresses",
          "type": "address[]"
        },
        {
          "internalType": "address[]",
          "name": "priceFeedAddresses",
          "type": "address[]"
        },
        {
          "internalType": "address",
          "name": "dscAddress",
          "type": "address"
        }
      ],
      "stateMutability": "nonpayable",
      "type": "constructor"
    },
    {
      "inputs": [
        {
          "internalType": "uint256",
          "name": "healthFactorValue",
          "type": "uint256"
        }
      ],
      "name": "DSCEngine__BreaksHealthFactor",
      "type": "error"
    },
    {
      "inputs": [],
      "name": "DSCEngine__HealthFactorNotImproved",
      "type": "error"
    },
    {
      "inputs": [],
      "name": "DSCEngine__HealthFactorOk",
      "type": "error"
    },
    {
      "inputs": [],
      "name": "DSCEngine__MintFailed",
      "type": "error"
    },
    {
      "inputs": [],
      "name": "DSCEngine__NeedsMoreThanZero",
      "type": "error"
    },
    {
      "inputs": [],
      "name": "DSCEngine__TokenAddressesAndPriceFeedAddressesAmountsDontMatch",
      "type": "error"
    },
    {
      "inputs": [
        {
          "internalType": "address",
          "name": "token",
          "type": "address"
        }
      ],
      "name": "DSCEngine__TokenNotAllowed",
      "type": "error"
    },
    {
      "inputs": [],
      "name": "DSCEngine__TransferFailed",
      "type": "error"
    },
    {
      "anonymous": false,
      "inputs": [
        {
          "indexed": true,
          "internalType": "address",
          "name": "user",
          "type": "address"
        },
        {
          "indexed": true,
          "internalType": "address",
          "name": "token",
          "type": "address"
        },
        {
          "indexed": true,
          "internalType": "uint256",
          "name": "amount",
          "type": "uint256"
        }
      ],
      "name": "CollateralDeposited",
      "type": "event"
    },
    {
      "inputs": [],
      "name": "burnDsc",
      "outputs": [],
      "stateMutability": "nonpayable",
      "type": "function"
    },
    {
      "inputs": [
        {
          "internalType": "address",
          "name": "tokenCollateralAddress",
          "type": "address"
        },
        {
          "internalType": "uint256",
          "name": "amountCollateral",
          "type": "uint256"
        }
      ],
      "name": "depositCollateral",
      "outputs": [],
      "stateMutability": "nonpayable",
      "type": "function"
    },
    {
      "inputs": [
        {
          "internalType": "address",
          "name": "tokenCollateralAddress",
          "type": "address"
        },
        {
          "internalType": "uint256",
          "name": "amountCollateral",
          "type": "uint256"
        }
      ],
      "name": "depositCollateralAndMintDsc",
      "outputs": [],
      "stateMutability": "nonpayable",
      "type": "function"
    },
    {
      "inputs": [
        {
          "internalType": "address",
          "name": "user",
          "type": "address"
        }
      ],
      "name": "getAccountCollateralValue",
      "outputs": [
        {
          "internalType": "uint256",
          "name": "totalCollateralValueInUsd",
          "type": "uint256"
        }
      ],
      "stateMutability": "view",
      "type": "function"
    },
    {
      "inputs": [],
      "name": "getHealthFactor",
      "outputs": [],
      "stateMutability": "view",
      "type": "function"
    },
    {
      "inputs": [
        {
          "internalType": "address",
          "name": "token",
          "type": "address"
        },
        {
          "internalType": "uint256",
          "name": "amount",
          "type": "uint256"
        }
      ],
      "name": "getUsdValue",
      "outputs": [
        {
          "internalType": "uint256",
          "name": "",
          "type": "uint256"
        }
      ],
      "stateMutability": "view",
      "type": "function"
    },
    {
      "inputs": [],
      "name": "liquidate",
      "outputs": [],
      "stateMutability": "nonpayable",
      "type": "function"
    },
    {
      "inputs": [
        {
          "internalType": "uint256",
          "name": "amountDscToMint",
          "type": "uint256"
        }
      ],
      "name": "mintDsc",
      "outputs": [],
      "stateMutability": "nonpayable",
      "type": "function"
    },
    {
      "inputs": [],
      "name": "redeemCollateral",
      "outputs": [],
      "stateMutability": "nonpayable",
      "type": "function"
    },
    {
      "inputs": [],
      "name": "redeemCollateralForDsc",
      "outputs": [],
      "stateMutability": "nonpayable",
      "type": "function"
    },
    {
      "inputs": [
        {
          "internalType": "address",
          "name": "",
          "type": "address"
        }
      ],
      "name": "s_priceFeeds",
      "outputs": [
        {
          "internalType": "address",
          "name": "",
          "type": "address"
        }
      ],
      "stateMutability": "view",
      "type": "function"
    }
  ],
  "bytecode": {
    "object": "0x60a06040523480156200001157600080fd5b5060405162000b5938038062000b59833981016040819052620000349162000248565b600160005581518351146200005c57604051631d8bb3e760e11b815260040160405180910390fd5b60005b835181101562000152578281815181106200007e576200007e620002c4565b6020026020010151600160008684815181106200009f576200009f620002c4565b60200260200101516001600160a01b03166001600160a01b0316815260200190815260200160002060006101000a8154816001600160a01b0302191690836001600160a01b031602179055506004848281518110620001025762000102620002c4565b60209081029190910181015182546001810184556000938452919092200180546001600160a01b0319166001600160a01b03909216919091179055806200014981620002da565b9150506200005f565b506001600160a01b031660805250620003029050565b634e487b7160e01b600052604160045260246000fd5b80516001600160a01b03811681146200019657600080fd5b919050565b600082601f830112620001ad57600080fd5b815160206001600160401b0380831115620001cc57620001cc62000168565b8260051b604051601f19603f83011681018181108482111715620001f457620001f462000168565b6040529384528581018301938381019250878511156200021357600080fd5b83870191505b848210156200023d576200022d826200017e565b8352918301919083019062000219565b979650505050505050565b6000806000606084860312156200025e57600080fd5b83516001600160401b03808211156200027657600080fd5b62000284878388016200019b565b945060208601519150808211156200029b57600080fd5b50620002aa868287016200019b565b925050620002bb604085016200017e565b90509250925092565b634e487b7160e01b600052603260045260246000fd5b600060018201620002fb57634e487b7160e01b600052601160045260246000fd5b5060010190565b60805161083b6200031e60003960006104d8015261083b6000f3fe608060405234801561001057600080fd5b50600436106100a95760003560e01c8063a5d5db0c11610071578063a5d5db0c1461012a578063a5f352b7146100ae578063a6534470146100ae578063c660d1121461013d578063c9b7c32714610150578063ffde1fba146100ae57600080fd5b806328a07025146100ae57806350328a60146100b057806359451b6d146100c35780637d1a4450146101095780639e297554146100ae575b600080fd5b005b6100ae6100be366004610683565b610163565b6100ec6100d13660046106ad565b6001602052600090815260409020546001600160a01b031681565b6040516001600160a01b0390911681526020015b60405180910390f35b61011c6101173660046106ad565b61018a565b604051908152602001610100565b6100ae610138366004610683565b610212565b61011c61014b366004610683565b6103a1565b6100ae61015e3660046106cf565b610461565b80806000036101855760405163cb1d3f7d60e01b815260040160405180910390fd5b505050565b6000805b60045481101561020c576000600482815481106101ad576101ad6106e8565b60009182526020808320909101546001600160a01b038781168452600283526040808520919092168085529252909120549091506101eb82826103a1565b6101f59085610714565b93505050808061020490610727565b91505061018e565b50919050565b80806000036102345760405163cb1d3f7d60e01b815260040160405180910390fd5b6001600160a01b0380841660009081526001602052604090205484911661027e5760405163cf39359560e01b81526001600160a01b03821660048201526024015b60405180910390fd5b61028661057c565b3360009081526002602090815260408083206001600160a01b0388168452909152812080548592906102b9908490610714565b909155505060405183906001600160a01b0386169033907ff1c0dd7e9b98bbff859029005ef89b127af049cd18df1a8d79f0b7e019911e5690600090a46040516323b872dd60e01b8152336004820152306024820152604481018490526000906001600160a01b038616906323b872dd906064016020604051808303816000875af115801561034c573d6000803e3d6000fd5b505050506040513d601f19601f820116820180604052508101906103709190610740565b90508061039057604051634dc34d1760e01b815260040160405180910390fd5b5061039b6001600055565b50505050565b6001600160a01b03808316600090815260016020526040808220548151633fabe5a360e21b81529151929316918391839163feaf968c9160048082019260a0929091908290030181865afa1580156103fd573d6000803e3d6000fd5b505050506040513d601f19601f82011682018060405250810190610421919061077c565b505050915050670de0b6b3a7640000846402540be4008361044291906107cc565b61044c91906107cc565b61045691906107e3565b925050505b92915050565b80806000036104835760405163cb1d3f7d60e01b815260040160405180910390fd5b61048b61057c565b33600090815260036020526040812080548492906104aa908490610714565b909155506104b99050336105d5565b6040516340c10f1960e01b8152336004820152602481018390526000907f00000000000000000000000000000000000000000000000000000000000000006001600160a01b0316906340c10f19906044016020604051808303816000875af1158015610529573d6000803e3d6000fd5b505050506040513d601f19601f8201168201806040525081019061054d9190610740565b90508061056d576040516330eb0fc960e01b815260040160405180910390fd5b506105786001600055565b5050565b6002600054036105ce5760405162461bcd60e51b815260206004820152601f60248201527f5265656e7472616e637947756172643a207265656e7472616e742063616c6c006044820152606401610275565b6002600055565b60006105e082610607565b905060018110156105785760405163e580cc6160e01b815260048101829052602401610275565b60008060006106158461063d565b9092509050600060646106296032846107cc565b61063391906107e3565b9050505050919050565b6001600160a01b038116600090815260036020526040812054906106608361018a565b9050915091565b80356001600160a01b038116811461067e57600080fd5b919050565b6000806040838503121561069657600080fd5b61069f83610667565b946020939093013593505050565b6000602082840312156106bf57600080fd5b6106c882610667565b9392505050565b6000602082840312156106e157600080fd5b5035919050565b634e487b7160e01b600052603260045260246000fd5b634e487b7160e01b600052601160045260246000fd5b8082018082111561045b5761045b6106fe565b600060018201610739576107396106fe565b5060010190565b60006020828403121561075257600080fd5b815180151581146106c857600080fd5b805169ffffffffffffffffffff8116811461067e57600080fd5b600080600080600060a0868803121561079457600080fd5b61079d86610762565b94506020860151935060408601519250606086015191506107c060808701610762565b90509295509295909350565b808202811582820484141761045b5761045b6106fe565b60008261080057634e487b7160e01b600052601260045260246000fd5b50049056fea2646970667358221220e04b660c57119679b00f2b3e298ca61667780957ca881d826fa35ef678b6a06d64736f6c63430008110033",
    "linkReferences": {}
  },
  "methodIdentifiers": {
    "burnDsc()": "ffde1fba",
    "depositCollateral(address,uint256)": "a5d5db0c",
    "depositCollateralAndMintDsc(address,uint256)": "50328a60",
    "getAccountCollateralValue(address)": "7d1a4450",
    "getHealthFactor()": "a5f352b7",
    "getUsdValue(address,uint256)": "c660d112",
    "liquidate()": "28a07025",
    "mintDsc(uint256)": "c9b7c327",
    "redeemCollateral()": "a6534470",
    "redeemCollateralForDsc()": "9e297554",
    "s_priceFeeds(address)": "59451b6d"
  },
  "id": 0
}