{
  "abi": [
    {
      "inputs": [
        {
          "internalType": "address[]",
          "name": "tokenAddresses",
          "type": "address[]"
        },
        {
          "internalType": "address[]",
          "name": "priceFeedAddresses",
          "type": "address[]"
        },
        {
          "internalType": "address",
          "name": "dscAddress",
          "type": "address"
        }
      ],
      "stateMutability": "nonpayable",
      "type": "constructor"
    },
    {
      "inputs": [
        {
          "internalType": "uint256",
          "name": "healthFactorValue",
          "type": "uint256"
        }
      ],
      "name": "DSCEngine__BreaksHealthFactor",
      "type": "error"
    },
    {
      "inputs": [],
      "name": "DSCEngine__HealthFactorNotImproved",
      "type": "error"
    },
    {
      "inputs": [],
      "name": "DSCEngine__HealthFactorOk",
      "type": "error"
    },
    {
      "inputs": [],
      "name": "DSCEngine__MintFailed",
      "type": "error"
    },
    {
      "inputs": [],
      "name": "DSCEngine__NeedsMoreThanZero",
      "type": "error"
    },
    {
      "inputs": [],
      "name": "DSCEngine__TokenAddressesAndPriceFeedAddressesAmountsDontMatch",
      "type": "error"
    },
    {
      "inputs": [
        {
          "internalType": "address",
          "name": "token",
          "type": "address"
        }
      ],
      "name": "DSCEngine__TokenNotAllowed",
      "type": "error"
    },
    {
      "inputs": [],
      "name": "DSCEngine__TransferFailed",
      "type": "error"
    },
    {
      "anonymous": false,
      "inputs": [
        {
          "indexed": true,
          "internalType": "address",
          "name": "user",
          "type": "address"
        },
        {
          "indexed": true,
          "internalType": "address",
          "name": "token",
          "type": "address"
        },
        {
          "indexed": true,
          "internalType": "uint256",
          "name": "amount",
          "type": "uint256"
        }
      ],
      "name": "CollateralDeposited",
      "type": "event"
    },
    {
      "anonymous": false,
      "inputs": [
        {
          "indexed": true,
          "internalType": "address",
          "name": "redeemedFrom",
          "type": "address"
        },
        {
          "indexed": true,
          "internalType": "address",
          "name": "redeemedTo",
          "type": "address"
        },
        {
          "indexed": true,
          "internalType": "address",
          "name": "token",
          "type": "address"
        },
        {
          "indexed": false,
          "internalType": "uint256",
          "name": "amount",
          "type": "uint256"
        }
      ],
      "name": "CollateralRedeemed",
      "type": "event"
    },
    {
      "inputs": [
        {
          "internalType": "uint256",
          "name": "amount",
          "type": "uint256"
        }
      ],
      "name": "burnDsc",
      "outputs": [],
      "stateMutability": "nonpayable",
      "type": "function"
    },
    {
      "inputs": [
        {
          "internalType": "address",
          "name": "tokenCollateralAddress",
          "type": "address"
        },
        {
          "internalType": "uint256",
          "name": "amountCollateral",
          "type": "uint256"
        }
      ],
      "name": "depositCollateral",
      "outputs": [],
      "stateMutability": "nonpayable",
      "type": "function"
    },
    {
      "inputs": [
        {
          "internalType": "address",
          "name": "tokenCollateralAddress",
          "type": "address"
        },
        {
          "internalType": "uint256",
          "name": "amountCollateral",
          "type": "uint256"
        },
        {
          "internalType": "uint256",
          "name": "amountDscToMint",
          "type": "uint256"
        }
      ],
      "name": "depositCollateralAndMintDsc",
      "outputs": [],
      "stateMutability": "nonpayable",
      "type": "function"
    },
    {
      "inputs": [
        {
          "internalType": "address",
          "name": "user",
          "type": "address"
        }
      ],
      "name": "getAccountCollateralValue",
      "outputs": [
        {
          "internalType": "uint256",
          "name": "totalCollateralValueInUsd",
          "type": "uint256"
        }
      ],
      "stateMutability": "view",
      "type": "function"
    },
    {
      "inputs": [],
      "name": "getHealthFactor",
      "outputs": [],
      "stateMutability": "view",
      "type": "function"
    },
    {
      "inputs": [
        {
          "internalType": "address",
          "name": "token",
          "type": "address"
        },
        {
          "internalType": "uint256",
          "name": "usdAmountInWei",
          "type": "uint256"
        }
      ],
      "name": "getTokenAmountFromUsd",
      "outputs": [
        {
          "internalType": "uint256",
          "name": "",
          "type": "uint256"
        }
      ],
      "stateMutability": "view",
      "type": "function"
    },
    {
      "inputs": [
        {
          "internalType": "address",
          "name": "token",
          "type": "address"
        },
        {
          "internalType": "uint256",
          "name": "amount",
          "type": "uint256"
        }
      ],
      "name": "getUsdValue",
      "outputs": [
        {
          "internalType": "uint256",
          "name": "",
          "type": "uint256"
        }
      ],
      "stateMutability": "view",
      "type": "function"
    },
    {
      "inputs": [
        {
          "internalType": "address",
          "name": "collateral",
          "type": "address"
        },
        {
          "internalType": "address",
          "name": "user",
          "type": "address"
        },
        {
          "internalType": "uint256",
          "name": "debtToCover",
          "type": "uint256"
        }
      ],
      "name": "liquidate",
      "outputs": [],
      "stateMutability": "nonpayable",
      "type": "function"
    },
    {
      "inputs": [
        {
          "internalType": "uint256",
          "name": "amountDscToMint",
          "type": "uint256"
        }
      ],
      "name": "mintDsc",
      "outputs": [],
      "stateMutability": "nonpayable",
      "type": "function"
    },
    {
      "inputs": [
        {
          "internalType": "address",
          "name": "tokenCollateralAddress",
          "type": "address"
        },
        {
          "internalType": "uint256",
          "name": "amountCollateral",
          "type": "uint256"
        }
      ],
      "name": "redeemCollateral",
      "outputs": [],
      "stateMutability": "nonpayable",
      "type": "function"
    },
    {
      "inputs": [
        {
          "internalType": "address",
          "name": "tokenCollateralAddress",
          "type": "address"
        },
        {
          "internalType": "uint256",
          "name": "amountCollateral",
          "type": "uint256"
        },
        {
          "internalType": "uint256",
          "name": "amountDscToBurn",
          "type": "uint256"
        }
      ],
      "name": "redeemCollateralForDsc",
      "outputs": [],
      "stateMutability": "nonpayable",
      "type": "function"
    },
    {
      "inputs": [
        {
          "internalType": "address",
          "name": "",
          "type": "address"
        }
      ],
      "name": "s_priceFeeds",
      "outputs": [
        {
          "internalType": "address",
          "name": "",
          "type": "address"
        }
      ],
      "stateMutability": "view",
      "type": "function"
    }
  ],
  "bytecode": {
    "object": "0x60a06040523480156200001157600080fd5b506040516200110d3803806200110d833981016040819052620000349162000248565b600160005581518351146200005c57604051631d8bb3e760e11b815260040160405180910390fd5b60005b835181101562000152578281815181106200007e576200007e620002c4565b6020026020010151600160008684815181106200009f576200009f620002c4565b60200260200101516001600160a01b03166001600160a01b0316815260200190815260200160002060006101000a8154816001600160a01b0302191690836001600160a01b031602179055506004848281518110620001025762000102620002c4565b60209081029190910181015182546001810184556000938452919092200180546001600160a01b0319166001600160a01b03909216919091179055806200014981620002da565b9150506200005f565b506001600160a01b031660805250620003029050565b634e487b7160e01b600052604160045260246000fd5b80516001600160a01b03811681146200019657600080fd5b919050565b600082601f830112620001ad57600080fd5b815160206001600160401b0380831115620001cc57620001cc62000168565b8260051b604051601f19603f83011681018181108482111715620001f457620001f462000168565b6040529384528581018301938381019250878511156200021357600080fd5b83870191505b848210156200023d576200022d826200017e565b8352918301919083019062000219565b979650505050505050565b6000806000606084860312156200025e57600080fd5b83516001600160401b03808211156200027657600080fd5b62000284878388016200019b565b945060208601519150808211156200029b57600080fd5b50620002aa868287016200019b565b925050620002bb604085016200017e565b90509250925092565b634e487b7160e01b600052603260045260246000fd5b600060018201620002fb57634e487b7160e01b600052601160045260246000fd5b5060010190565b608051610de16200032c6000396000818161070401528181610a190152610abe0152610de16000f3fe608060405234801561001057600080fd5b50600436106100b45760003560e01c8063afea2e4811610071578063afea2e481461015b578063c660d1121461016e578063c9b7c32714610181578063e90db8a314610194578063f419ea9c146101a7578063f6876608146101ba57600080fd5b806326c01303146100b957806359451b6d146100ce5780637d1a4450146101145780639acd81b314610135578063a5d5db0c14610148578063a5f352b7146100cc575b600080fd5b6100cc6100c7366004610ba7565b6101cd565b005b6100f76100dc366004610be3565b6001602052600090815260409020546001600160a01b031681565b6040516001600160a01b0390911681526020015b60405180910390f35b610127610122366004610be3565b6102c5565b60405190815260200161010b565b6100cc610143366004610c05565b61034d565b6100cc610156366004610c05565b61039b565b610127610169366004610c05565b610524565b61012761017c366004610c05565b6105e2565b6100cc61018f366004610c2f565b61068d565b6100cc6101a2366004610c48565b6107a8565b6100cc6101b5366004610c48565b6107bb565b6100cc6101c8366004610c2f565b6107ce565b80806000036101ef5760405163cb1d3f7d60e01b815260040160405180910390fd5b6101f76107fb565b600061020284610854565b9050670de0b6b3a7640000811061022c5760405163032c072f60e41b815260040160405180910390fd5b60006102388685610524565b905060006064610249600a84610c91565b6102539190610ca8565b905060006102618284610cca565b905061026f87338a8461088a565b61027a8688336109bd565b600061028588610854565b90508481116102a7576040516303e141b160e51b815260040160405180910390fd5b6102b033610b28565b50505050506102bf6001600055565b50505050565b6000805b600454811015610347576000600482815481106102e8576102e8610cdd565b60009182526020808320909101546001600160a01b0387811684526002835260408085209190921680855292529091205490915061032682826105e2565b6103309085610cca565b93505050808061033f90610cf3565b9150506102c9565b50919050565b808060000361036f5760405163cb1d3f7d60e01b815260040160405180910390fd5b6103776107fb565b6103833333858561088a565b61038c33610b28565b6103966001600055565b505050565b80806000036103bd5760405163cb1d3f7d60e01b815260040160405180910390fd5b6001600160a01b038084166000908152600160205260409020548491166104075760405163cf39359560e01b81526001600160a01b03821660048201526024015b60405180910390fd5b61040f6107fb565b3360009081526002602090815260408083206001600160a01b038816845290915281208054859290610442908490610cca565b909155505060405183906001600160a01b0386169033907ff1c0dd7e9b98bbff859029005ef89b127af049cd18df1a8d79f0b7e019911e5690600090a46040516323b872dd60e01b8152336004820152306024820152604481018490526000906001600160a01b038616906323b872dd906064016020604051808303816000875af11580156104d5573d6000803e3d6000fd5b505050506040513d601f19601f820116820180604052508101906104f99190610d0c565b90508061051957604051634dc34d1760e01b815260040160405180910390fd5b506102bf6001600055565b6001600160a01b03808316600090815260016020526040808220548151633fabe5a360e21b81529151929316918391839163feaf968c9160048082019260a0929091908290030181865afa158015610580573d6000803e3d6000fd5b505050506040513d601f19601f820116820180604052508101906105a49190610d48565b5050509150506402540be400816105bb9190610c91565b6105cd670de0b6b3a764000086610c91565b6105d79190610ca8565b925050505b92915050565b6001600160a01b03808316600090815260016020526040808220548151633fabe5a360e21b81529151929316918391839163feaf968c9160048082019260a0929091908290030181865afa15801561063e573d6000803e3d6000fd5b505050506040513d601f19601f820116820180604052508101906106629190610d48565b505050915050670de0b6b3a7640000846402540be400836106839190610c91565b6105cd9190610c91565b80806000036106af5760405163cb1d3f7d60e01b815260040160405180910390fd5b6106b76107fb565b33600090815260036020526040812080548492906106d6908490610cca565b909155506106e5905033610b28565b6040516340c10f1960e01b8152336004820152602481018390526000907f00000000000000000000000000000000000000000000000000000000000000006001600160a01b0316906340c10f19906044016020604051808303816000875af1158015610755573d6000803e3d6000fd5b505050506040513d601f19601f820116820180604052508101906107799190610d0c565b905080610799576040516330eb0fc960e01b815260040160405180910390fd5b506107a46001600055565b5050565b6107b2838361039b565b6103968161068d565b6107c4816107ce565b610396838361034d565b80806000036107f05760405163cb1d3f7d60e01b815260040160405180910390fd5b6107a48233336109bd565b60026000540361084d5760405162461bcd60e51b815260206004820152601f60248201527f5265656e7472616e637947756172643a207265656e7472616e742063616c6c0060448201526064016103fe565b6002600055565b600080600061086284610b61565b909250905060006064610876603284610c91565b6108809190610ca8565b9050505050919050565b6001600160a01b038085166000908152600260209081526040808320938616835292905290812080548392906108c1908490610d98565b92505081905550816001600160a01b0316836001600160a01b0316856001600160a01b03167fb292db12b8dfa23b760ee5e3bd1d3be184cd8f0eeeacd27ce120d4de4e4721f68460405161091791815260200190565b60405180910390a460405163a9059cbb60e01b81526001600160a01b038481166004830152602482018390526000919084169063a9059cbb906044016020604051808303816000875af1158015610972573d6000803e3d6000fd5b505050506040513d601f19601f820116820180604052508101906109969190610d0c565b9050806109b657604051634dc34d1760e01b815260040160405180910390fd5b5050505050565b6001600160a01b038216600090815260036020526040812080548592906109e5908490610d98565b90915550506040516323b872dd60e01b81526001600160a01b038281166004830152306024830152604482018590526000917f0000000000000000000000000000000000000000000000000000000000000000909116906323b872dd906064016020604051808303816000875af1158015610a64573d6000803e3d6000fd5b505050506040513d601f19601f82011682018060405250810190610a889190610d0c565b905080610aa857604051634dc34d1760e01b815260040160405180910390fd5b604051630852cd8d60e31b8152600481018590527f00000000000000000000000000000000000000000000000000000000000000006001600160a01b0316906342966c6890602401600060405180830381600087803b158015610b0a57600080fd5b505af1158015610b1e573d6000803e3d6000fd5b5050505050505050565b6000610b3382610854565b9050670de0b6b3a76400008110156107a45760405163e580cc6160e01b8152600481018290526024016103fe565b6001600160a01b03811660009081526003602052604081205490610b84836102c5565b9050915091565b80356001600160a01b0381168114610ba257600080fd5b919050565b600080600060608486031215610bbc57600080fd5b610bc584610b8b565b9250610bd360208501610b8b565b9150604084013590509250925092565b600060208284031215610bf557600080fd5b610bfe82610b8b565b9392505050565b60008060408385031215610c1857600080fd5b610c2183610b8b565b946020939093013593505050565b600060208284031215610c4157600080fd5b5035919050565b600080600060608486031215610c5d57600080fd5b610c6684610b8b565b95602085013595506040909401359392505050565b634e487b7160e01b600052601160045260246000fd5b80820281158282048414176105dc576105dc610c7b565b600082610cc557634e487b7160e01b600052601260045260246000fd5b500490565b808201808211156105dc576105dc610c7b565b634e487b7160e01b600052603260045260246000fd5b600060018201610d0557610d05610c7b565b5060010190565b600060208284031215610d1e57600080fd5b81518015158114610bfe57600080fd5b805169ffffffffffffffffffff81168114610ba257600080fd5b600080600080600060a08688031215610d6057600080fd5b610d6986610d2e565b9450602086015193506040860151925060608601519150610d8c60808701610d2e565b90509295509295909350565b818103818111156105dc576105dc610c7b56fea264697066735822122025fcecfae0f846ee624940e52d70180e0d83f9ced860d5e410c320d0443effb964736f6c63430008140033",
    "linkReferences": {}
  },
  "methodIdentifiers": {
    "burnDsc(uint256)": "f6876608",
    "depositCollateral(address,uint256)": "a5d5db0c",
    "depositCollateralAndMintDsc(address,uint256,uint256)": "e90db8a3",
    "getAccountCollateralValue(address)": "7d1a4450",
    "getHealthFactor()": "a5f352b7",
    "getTokenAmountFromUsd(address,uint256)": "afea2e48",
    "getUsdValue(address,uint256)": "c660d112",
    "liquidate(address,address,uint256)": "26c01303",
    "mintDsc(uint256)": "c9b7c327",
    "redeemCollateral(address,uint256)": "9acd81b3",
    "redeemCollateralForDsc(address,uint256,uint256)": "f419ea9c",
    "s_priceFeeds(address)": "59451b6d"
  },
  "id": 0
}